{
	"units.sol": {
		"units": {
			"abi": [
				{
					"inputs": [],
					"name": "send",
					"outputs": [],
					"stateMutability": "payable",
					"type": "function"
				}
			],
			"devdoc": {
				"kind": "dev",
				"methods": {},
				"version": 1
			},
			"evm": {
				"assembly": "    /* \"units.sol\":68:262  contract units{... */\n  mstore(0x40, 0x80)\n  callvalue\n  dup1\n  iszero\n  tag_1\n  jumpi\n  0x00\n  dup1\n  revert\ntag_1:\n  pop\n  dataSize(sub_0)\n  dup1\n  dataOffset(sub_0)\n  0x00\n  codecopy\n  0x00\n  return\nstop\n\nsub_0: assembly {\n        /* \"units.sol\":68:262  contract units{... */\n      mstore(0x40, 0x80)\n      jumpi(tag_1, lt(calldatasize, 0x04))\n      shr(0xe0, calldataload(0x00))\n      dup1\n      0xb46300ec\n      eq\n      tag_2\n      jumpi\n    tag_1:\n      0x00\n      dup1\n      revert\n        /* \"units.sol\":212:257  function send() public payable amount{... */\n    tag_2:\n      tag_3\n      tag_4\n      jump\t// in\n    tag_3:\n      stop\n    tag_4:\n        /* \"units.sol\":132:136  1e18 */\n      0x0de0b6b3a7640000\n        /* \"units.sol\":121:130  msg.value */\n      callvalue\n        /* \"units.sol\":121:136  msg.value> 1e18 */\n      gt\n        /* \"units.sol\":113:137  require(msg.value> 1e18) */\n      tag_6\n      jumpi\n      0x00\n      dup1\n      revert\n    tag_6:\n        /* \"units.sol\":172:182  1690727655 */\n      0x64c674e7\n        /* \"units.sol\":155:170  block.timestamp */\n      timestamp\n        /* \"units.sol\":155:183  block.timestamp>(1690727655) */\n      gt\n        /* \"units.sol\":147:184  require(block.timestamp>(1690727655)) */\n      tag_7\n      jumpi\n      0x00\n      dup1\n      revert\n    tag_7:\n        /* \"units.sol\":212:257  function send() public payable amount{... */\n      jump\t// out\n\n    auxdata: 0xa264697066735822122054bcbbb0b1ded33279d7357ef4c22bc42473ac284ce2719c86782543998a321764736f6c63430008120033\n}\n",
				"bytecode": {
					"linkReferences": {},
					"object": "6080604052348015600f57600080fd5b5060838061001e6000396000f3fe608060405260043610601c5760003560e01c8063b46300ec146021575b600080fd5b60276029565b005b670de0b6b3a76400003411603c57600080fd5b6364c674e74211604b57600080fd5b56fea264697066735822122054bcbbb0b1ded33279d7357ef4c22bc42473ac284ce2719c86782543998a321764736f6c63430008120033",
					"opcodes": "PUSH1 0x80 PUSH1 0x40 MSTORE CALLVALUE DUP1 ISZERO PUSH1 0xF JUMPI PUSH1 0x0 DUP1 REVERT JUMPDEST POP PUSH1 0x83 DUP1 PUSH2 0x1E PUSH1 0x0 CODECOPY PUSH1 0x0 RETURN INVALID PUSH1 0x80 PUSH1 0x40 MSTORE PUSH1 0x4 CALLDATASIZE LT PUSH1 0x1C JUMPI PUSH1 0x0 CALLDATALOAD PUSH1 0xE0 SHR DUP1 PUSH4 0xB46300EC EQ PUSH1 0x21 JUMPI JUMPDEST PUSH1 0x0 DUP1 REVERT JUMPDEST PUSH1 0x27 PUSH1 0x29 JUMP JUMPDEST STOP JUMPDEST PUSH8 0xDE0B6B3A7640000 CALLVALUE GT PUSH1 0x3C JUMPI PUSH1 0x0 DUP1 REVERT JUMPDEST PUSH4 0x64C674E7 TIMESTAMP GT PUSH1 0x4B JUMPI PUSH1 0x0 DUP1 REVERT JUMPDEST JUMP INVALID LOG2 PUSH5 0x6970667358 0x22 SLT KECCAK256 SLOAD 0xBC 0xBB 0xB0 0xB1 0xDE 0xD3 ORIGIN PUSH26 0xD7357EF4C22BC42473AC284CE2719C86782543998A321764736F PUSH13 0x63430008120033000000000000 "
				},
				"gasEstimates": {
					"creation": {
						"codeDepositCost": "26200",
						"executionCost": "81",
						"totalCost": "26281"
					},
					"external": {
						"send()": "142"
					}
				},
				"methodIdentifiers": {
					"send()": "b46300ec"
				}
			},
			"storageLayout": {
				"storage": [],
				"types": null
			},
			"userdoc": {
				"kind": "user",
				"methods": {},
				"version": 1
			}
		}
	}
}